:1000000000308A00CB28000064000B138B138B1B7D
:100010000628A200030EA30000308C1A0130F8005D
:10002000780B3C28181D18280230F8002A281811CF
:10003000981C1E280330F8002A2898108C1A2328B0
:100040000030F8002A288C1E2A281A08A700013040
:10005000F8002A28780B2E2824143C28AD01AE0184
:100060000130AF00B001B1004320AD01AE0101305D
:10007000AF00B000B1004320C0308B04230E8300DA
:10008000A20E220E09008316181383122D1C4B2872
:1000900083161817831218132D1818178316981221
:1000A00083122F1C56288316981683128316181253
:1000B00083122E1C5E28831618168312981330188C
:1000C000981718123118181618119810080083166E
:1000D00018118312281C6F288316181583122908FB
:1000E0008316990083128A110A12F12883168C1242
:1000F0008312291C7E2883168C16831283160C12F9
:100100008312281C862883160C16831298112A182D
:1001100098158A110A120B290730A9002A10A81B6A
:100120002A14A9080319AD280130A90200302A18A1
:100130000130AB002808F7002908F8000319A428AB
:100140000310F70CF80BA0280030771801302B06AD
:10015000F8002A1078182A14912800302A18013043
:10016000F8008A110A121029A030AA00A908031960
:10017000BA282A142A08F8008A110A121429290810
:1001800099000800241CC8282708063C031DC8281D
:100190008A110A121D29840183131F3083058316D7
:1001A0001F149F141F159F118312A001A101831614
:1001B0000108C03981000C30F700831281018130C1
:1001C000840083130008F0390738800064000008B9
:1001D000F739F719F03977048000A801FF30A9003A
:1001E000672880018B1B80178B13AD01AE01013096
:1001F000AF00B000B1004320801B8B17831681171E
:100200008501860187018801C03083128B04A80113
:10021000A901AA0176280730A6002608A8008C2884
:100220007808A800A900B4287808A800A900BF2071
:0E0230002608A900BF206400C2281B29630015
:02400E00723FFF
:00000001FF
;PIC16F877
;CRC=0FE8  CREATED="17-out-17 19:47"
