:1000000000308A009728000064000B138B138B1BB1
:100010000628A200030EA300C0308B04230E830029
:10002000A20E220E0900F03083168600831286008D
:100030000608F03C031D1E28A5108C281430A800CB
:100040002830840083130008031933280630F80091
:10005000F701F70B2928F80B28287B30F700F70B5E
:100060002F28800B26280608F03C031D3928A510F0
:100070008C280030251C0130A8000030A518013064
:100080002805031944288C28FE308600061A4A28C1
:100090000130A600861A4E280430A600061B5228FE
:1000A0000730A600861B56280D30A600FD308600BE
:1000B000061A5C280230A600861A60280530A600C1
:1000C000061B64280830A600861FA601FB308600A8
:1000D000061A6C280330A600861A70280630A6007F
:1000E000061B74280930A600861B78280E30A6004F
:1000F000F7308600061A7E280A30A600861A822863
:100100000B30A600061B86280C30A600861B8A280A
:100110000F30A600A51425148A110A12CC28251C1C
:1001200094282608880025108A110A12CD288401F7
:1001300083131F3083052510A51083161F149F14E9
:100140001F159F118312A001A10183160108C03958
:100150008100B530831290000C30F70081018130AE
:10016000840083130008F039073880006400000819
:10017000F739F719F039770480000B138B138B1BB9
:10018000BE288316811385018701880189018312A6
:0E01900025108801640013288F28CA286300F8
:02400E00723FFF
:00000001FF
;PIC16F877
;CRC=811F  CREATED="16-set-17 07:31"
