:1000000000308A009728000064000B138B138B1BB1
:100010000628A200030EA300C0308B04230E830029
:10002000A20E220E0900F030831688008312880089
:100030000808F03C031D1E28A51008001430A80075
:100040002830840083130008031933280630F80091
:10005000F701F70B2928F80B28287B30F700F70B5E
:100060002F28800B26280808F03C031D3928A510EE
:1000700008000030251C0130A8000030A518013010
:100080002805031944280800FE308800081A4A2869
:100090000130A600881A4E280430A600081B5228FA
:1000A0000730A600881B56280D30A600FD308800BA
:1000B000081A5C280230A600881A60280530A600BD
:1000C000081B64280830A600881FA601FB308800A2
:1000D000081A6C280330A600881A70280630A6007B
:1000E000081B74280930A600881B78280E30A6004B
:1000F000F7308800081A7E280A30A600881A82285D
:100100000B30A600081B86280C30A600881B8A2806
:100110000F30A600A51425148A110A12CB28251C1D
:1001200094282608860025108A110A12CC288401FA
:1001300083131F3083052510A51083161F149F14E9
:100140001F159F118312A001A10183160108C03958
:100150008100B530831290000C30F70081018130AE
:10016000840083130008F039073880006400000819
:10017000F739F719F039770480000B138B138B1BB9
:10018000BE288316811785018601870189018312A4
:0C0190008601640013288F28C928630032
:02400E00723FFF
:00000001FF
;PIC16F877
;CRC=05F1  CREATED="01-set-17 15:51"
