:1000000005308A00272D000064000B138B138B1B17
:100010000628A200030EA300C0308B04230E830029
:10002000A20E220E09000A108A100A118207283433
:100030000F34013406340A108A100A11820745343D
:10004000583445344D3450344C344F3420343134EA
:1000500000340A108A100A11820754346534783447
:1000600074346F3400340A108A100A118207453440
:10007000583445344D3450344C344F3420343234B9
:1000800000340A108A100A11820745345834453466
:100090004D3450344C344F342034333400340A104F
:1000A0008A100A1182074E3475346D346534723407
:1000B0006F343A34203425343234753400340A1025
:1000C0008A100A1182074534583445344D3450346F
:1000D0004C344F342034343400340A108A100A115E
:1000E00082074E3475346D34653472346F343A346B
:1000F00020342534643400340A108A100A1182072F
:100100004534583445344D3450344C344F34203415
:10011000353400340A108A100A1182074E347534BF
:100120006D34653472346F3473343A34203425348A
:1001300064342034653420342534643400340A10A7
:100140008A100A1182074534583445344D345034EE
:100150004C344F342034363400340A108A100A11DB
:1001600082074E3475346D34653472346F343A34EA
:100170002034253431342E343334663400340A10BC
:100180008A100A1182074534583445344D345034AE
:100190004C344F342034373400340A108A100A119A
:1001A00082074E3475346D34653472346F343A34AA
:1001B0002034253432342E343234653400340A107D
:1001C0008A100A1182074534583445344D3450346E
:1001D0004C344F342034383400340A108A100A1159
:1001E0008207453478343A34203466346134253417
:1001F00063346134003449308400831300080319E8
:100200000F290130F800F701F70B0429F80B032937
:100210004A30F700F70B0A290D29800B0129080045
:1002200050181429061015290614D01819298610FB
:100230001A29861450191E2906111F290615D019CE
:10024000232986112429861586168612080006128F
:10025000CD08031D2D2906122E2906162130F70080
:10026000F70B302986124E0ECF000F30CF054F0806
:10027000D00010214E080F39CF00D0001021080007
:100280000610861006118611061286120F30C9005C
:10029000FB200130B6003608033C031C572903300D
:1002A000D00010210530C900FB20B60A4B290230CE
:1002B000D0001021B6013608033C031C682936081B
:1002C0001320B700CD013708CE002721B60A5B29DD
:1002D000652D4A0B6C296F294030CB007029CB016A
:1002E00001304902CB074B088038CC00CD014C08C7
:1002F000CE002721080048080C3A03198929063A3C
:1003000003199129073A03199129053A03199729E5
:100310009C29CD010130CE0027210230C900FB20ED
:10032000A2290130C9000230CA006921A229CD01E9
:100330001030CE002721A2290130CD004808CE0080
:100340002721A22908003D08F8013C020318AB2927
:100350003C08F700B729F7010830BE00BC0DF70DC7
:100360003D0877020318F700F80DBE0BAE29080010
:1003700078083608BC006430BD00A3217708B600B9
:1003800078083030031DCB29B71CD229B719D229E0
:10039000371A2030CE29B71137123714F8077808EA
:1003A000C8007B213608BC000A30BD00A3217708B5
:1003B000B60078083030031DE329B719E729371C48
:1003C000E729371A2030F8077808C8007B21303039
:1003D000B6073608C8007B21ED2D2030371E30309F
:1003E000B8003608F700B61FFC29F709F70A7708A6
:1003F000B6002D30B800B7173608BC006430BD0019
:10040000A3217708B60030307807B9003608BC0061
:100410000A30BD00A32130307707BB0030307807A9
:10042000BA003808F700B71D172AB71F3711371A57
:10043000242AB71F3F2A37193F2A7708B900B7186F
:100440003F2A7708BA003F2A30303902031D3F2A7D
:100450007708B9002030B800B71D322A3711B71419
:10046000B71FB71030303A02031D3F2A7708BA0091
:100470002030B900B71D322AB710B71F3710371D0B
:10048000442A3808C8007B21B71C492A3908C8000B
:100490007B21371C4E2A3A08C8007B213B08C80044
:1004A0007B210800F701F801F901FA01CB01CC0129
:1004B000CD01CE014A084904480447040319902A93
:1004C0002030CF000310C30DC40DC50DC60DCB0DDC
:1004D000CC0DCD0DCE0D4A084E02031D792A4908D8
:1004E0004D02031D792A48084C02031D792A47084A
:1004F0004B02031C8A2A4708CB024808031C480FFA
:10050000CC024908031C490FCD024A08031C4A0FBC
:10051000CE020314F70DF80DF90DFA0DCF0B622A78
:100520004B308400831308000408BB003A08BD0068
:100530000319262B3908C6003808C5003708C4003F
:100540003608C300CA01C9012030C8008230C70084
:1005500043080319182BCB0047080319182BCB07A6
:100560000318B92A7F30CB02031C182B0319182B50
:10057000BD2A8130CB070318182B4B08F700F80170
:10058000F901FA014408CF00CF174508CE0046080C
:10059000CD001830CB00CC014D1CE62A4A08FA07E2
:1005A000031CD82AF90A031DD82AF80A0319CC1704
:1005B0004908F907031CDF2AF80A0319CC17480871
:1005C000C500C5174508F8070318CC17CC0DF80C63
:1005D000F90CFA0CCF0CCE0CCD0C0310CB0BCB2AA4
:1005E0000130F7070318182BF81BFD2ACF0DFA0D61
:1005F000F90DF80DF7030319182BCF1F0E2BFA0A6C
:10060000031D0E2BF90A031D0E2BF80A031D0E2BDA
:10061000F80CF90CFA0CF70A0319182B4408CC0053
:100620004808CC06CC1F162BF8171C2BF8131C2BD4
:10063000F701F801F901FA017A08B9007908B80060
:100640007808B7007708B600BD0B9A2A3908C600AB
:100650003808C5003708C4003608C3004308B63C54
:10066000C300FA014408C700C4170310C40CC50C2A
:10067000C60CFA0CF90CF80CF70CC30B352BC71F82
:100680004C2BF709F809F909FA09F70A0319F80ACE
:100690000319F90A0319FA0A7A08B9007908B800A7
:1006A0007808B7007708B600B91F632BBB03BB16E9
:1006B000B609B709B809B909B60A0319B70A03197F
:1006C000B80A0319B90A3B30C2009A30C100CA30D7
:1006D000C000BF010A30BD003A080319BB0A39083F
:1006E000C6003808C5003708C4003608C3004208F1
:1006F000CA004108C9004008C8003F08C70052228C
:100700000008B600840A0008B700840A0008B80090
:10071000840A0008B900FD308407F708031DA32BE5
:100720003A0A3D020319A32B3B080319A52B0F39E5
:100730003D0203199D2B0318D52BBB1BD52B3B1B4F
:10074000A52B2030D12B2030BB05BB1EB32BBB12F9
:100750003A08031DBB037708BB002D30C8007B217E
:100760003B08F700BB013A083D02031DC12B770887
:10077000BB002E30C8007B213B08F7002030BB05B2
:1007800000303030BB1ED12BBB123A08031DBB0317
:100790007708BB002D30C8007B213B08F700BB0168
:1007A0003030F7077708C8007B214208C6004108AF
:1007B000C5004008C4003F08C300CA01C901C80100
:1007C0000A30C70052227A08C2007908C1007808AE
:1007D000C0007708BF00BD0B6F2B9F2E3A08C300E7
:1007E0003B08C400C501B71FF72B4317C403B71755
:1007F00036080319972C7F303602031C562CB6009E
:10080000C6010430C7000310B90DB80DB70DC50DF2
:10081000C70B032C043036020318162C03303602A3
:10082000031D902C0A304502031C902C0330B602A5
:10083000C60A1D250310B90DB80DB70DC50D062547
:100840000230C7000310C50CB70CB80CB90CC70BAD
:10085000222C1D250430C7000310BA0CBB0CBC0CA5
:10086000BD0CC70B2C2C06251D253C08BD003B08E4
:10087000BC003A08BB00BA0106251D253B08BD0097
:100880003A08BC00BA01BB010625C5190A2CB608F6
:10089000031D4F2CB90AB80AB70AC50A902C0310D9
:1008A000B90DB80DB70DC50DB6030A2CB609B60AB9
:1008B0007F30B607C6010430C7000310B90DB80D6C
:1008C000B70DC50DC70B5D2C0430B60705303602D9
:1008D000031C9E2C1D250310B90DB80DB70DC50DB9
:1008E0000310B90DB80DB70DC50D06250310B90DD0
:1008F000B80DB70DC50DC60A0330C7000310C50CEF
:10090000B70CB80CB90CC70B7E2C0330B602451ED1
:10091000662C0310C50CB70CB80CB90CB603662CCA
:10092000B609B60A0330B6072B30C700A12CC501A3
:10093000B701B801B901C701C601A12CB6032D301A
:10094000C700431FA82C2D30C8007B21C3134313BD
:10095000BF014508BE0036080319B32CC0000310C0
:10096000BE0CC00BAF2C4308C0003F084002031C64
:10097000E02C30303E07C8007B21BF08031DC32C8C
:100980002E30C8007B21BF0A36080319CC2CC000CA
:100990000310BE0DC00BC82C3E08C5021D25031058
:1009A000B90DB80DB70DC50D0310B90DB80DB70DC4
:1009B000C50D06250310B90DB80DB70DC50DA92C31
:1009C0004530C8007B2147080319E82CC8007B216B
:1009D000C1014608C2000A30C202031CFD2CC10A34
:1009E000C2020318EF2CC20730304107C8007B2138
:1009F00030304207C8007B21052DC2073030C800C7
:100A00007B2130304207C8007B21262D3D08B907E5
:100A1000031C0F2DB80F0F2DB70F0F2DC50A3C0863
:100A2000B807031C162DB70F162DC50A3B08B707CC
:100A30000318C50A3A08C50700344508BA00370844
:100A4000BB003808BC003908BD000034E02E84012A
:100A500083131F30830507309F00A001A1014F3091
:100A6000A4006C30A5006130A6002030A7004D30F6
:100A7000A8007530A9006E30AA006430AB006F305A
:100A8000AC002130AD0083160108C0398100B530BB
:100A9000831290000C30F7008101813084008313B1
:100AA0000008F0390738800064000008F739F719AA
:100AB000F039770480000B138B138B1B5C2D83168E
:100AC000811785018601831240296430C900FB200B
:100AD0000C30C8007B210830C8007B216400013045
:100AE000C900CA006921B60136081B200038031965
:100AF0007D2DB60AC8007B21742D0330C900023059
:100B0000CA006921B60136082920003803198C2D46
:100B1000B60AC8007B21832D1430B600FA30C90014
:100B2000FB20B60B8E2D0C30C8007B210830C8008E
:100B30007B210130C900CA006921B6013608332083
:100B400000380319A72DB60AC8007B219E2D03305B
:100B5000C9000230CA006921AE012E08093C031CFD
:100B6000BB2D24302E07840083130008B600C80074
:100B70007B21AE0AAD2D1430B600FA30C900FB203F
:100B8000B60BBD2D0C30C8007B210830C8007B217E
:100B90000130C900CA006921B60136084120003879
:100BA0000319D62DB60AC8007B21CD2D0130C9000E
:100BB0000230CA0069213930AF00B60136084F2033
:100BC000B60AF700C8007B2108303602031DDE2D6F
:100BD0002F08B6001130B700B8291430B600FA302B
:100BE000C900FB20B60BEF2D0C30C8007B2108306C
:100BF000C8007B210130C900CA006921B60136084E
:100C00005F2000380319082EB60AC8007B21FF2D8B
:100C10000130C9000230CA006921F230B000B601CB
:100C200036086D20B60AF700C8007B21083036026E
:100C3000031D102E3008B6001F30B700ED21143010
:100C4000B600FA30C900FB20B60B212E0C30C800CC
:100C50007B210830C8007B210130C900CA0069210E
:100C6000B60136087C20003803193A2EB60AC800AF
:100C70007B21312E0130C9000230CA006921F230D7
:100C8000B000B60136088A20B60AF700C8007B21FA
:100C900009303602031D422E3008B6001F30B7005F
:100CA000ED212030C8007B216530C8007B21203039
:100CB000C8007B212F08B6001F30B700ED2114308B
:100CC000B600FA30C900FB20B60B612E0C30C8000C
:100CD0007B210830C8007B210130C900CA0069218E
:100CE000B60136089F20003803197A2EB60AC800CC
:100CF0007B21712E0130C9000230CA006921C53044
:100D0000B4002030B3003030B2007A30B100B60108
:100D10003608AD20B60AF700C8007B21083036023D
:100D2000031D882E893084003408B9003308B800C8
:100D30003208B7003108B6000330BA00942A1430E4
:100D4000B600FA30C900FB20B60BA12E0C30C8004B
:100D50007B210830C8007B210130C900CA0069210D
:100D6000B6013608BF2000380319BA2EB60AC800EB
:100D70007B21B12E0130C9000230CA006921C53083
:100D8000B4002030B3003030B2007A30B100B60188
:100D90003608CD20B60AF700C8007B21083036029D
:100DA000031DC82E3408B9003308B8003208B70054
:100DB0003108B600BD01BC010230BB00BA00EE2B09
:100DC0001430B600FA30C900FB20B60BE22E0C300E
:100DD000C8007B210830C8007B210130C900CA004F
:100DE0006921B6013608DF2000380319FB2EB60A48
:100DF000C8007B21F22E0130C9000230CA006921EF
:100E00008730B500B6013608ED20B60AF700C800F5
:100E10007B2106303602031D032F3508C8007B21D5
:100E20006130C8007B211430B600FA30C900FB20C5
:100E3000B60B152F0C30C8007B210830C8007B2171
:040E40006E2D6300B0
:02400E00623F0F
:00000001FF
;PIC16F628
;CRC=E4E2  CREATED="21-jul-17 09:55"
