:1000000003308A00642B000064000B138B138B1BDE
:100010000628A200030EA300C0308B04230E830029
:10002000A20E220E09000A108A100A118207283433
:100030000F34013406344527542941224110412709
:100040004126CF23A0180000D630EC37721DA01235
:100050003117333356004527542941224110412797
:100060004126CF2320190001D630EC37721DA01293
:100070003117333356003A308400831300080319D4
:100080004E280630F800F701F70B4428F80B4328F8
:100090007B30F700F70B4A28800B412808004118F5
:1000A0005328061054280614C118582886105928B9
:1000B000861441195D2806115E280615C1196228AB
:1000C0008611632886158616861208000612BE0859
:1000D000031D6C2806126D280616A630F700F70BD4
:1000E0006F28000086123F0EC0000F30C005400888
:1000F000C1004F203F080F39C000C1004F20080049
:100100000610861006118611061286120F30BA00EC
:100110003B200130AC002C08033C031C9728033023
:10012000C1004F200530BA003B20AC0A8B280230BA
:10013000C1004F20AC012C08033C031CA8282C084C
:100140001320AD00BE012D08BF006620AC0A9B281D
:100150008A110A12942B3B0BAE28B1284030BC0008
:10016000B228BC0101303A02BC073C088038BD000F
:10017000BE013D08BF006620080039080C3A03198B
:10018000CB28063A0319D328073A0319D328053A8E
:100190000319D928DE28BE010130BF0066200230D5
:1001A000BA003B20E4280130BA000230BB00AB208B
:1001B000E428BE011030BF006620E4280130BE00F4
:1001C0003908BF006620E42808002C0DF700F70D61
:1001D000F70DF830F7051F08C73977049F00103076
:1001E000F700F70BF12800001F151F19F5281E084E
:1001F000FA0083161E08F8007A08F9008312080036
:10020000390803197029C1003D0803197029C10775
:10021000031811297F30C102031C702903197029AA
:1002200015298130C107031870294108F700F8012A
:10023000F901FA013A08C500C5173B08C4003C089B
:10024000C3001830C100C201431C3E294008FA0710
:10025000031C3029F90A031D3029F80A0319C217B3
:100260003F08F907031C3729F80A0319C2173E088B
:10027000BB00BB173B08F8070318C217C20DF80CE8
:10028000F90CFA0CC50CC40CC30C0310C10B2329C8
:100290000130F70703187029F81B5529C50DFA0D11
:1002A000F90DF80DF70303197029C51F6629FA0A1D
:1002B000031D6629F90A031D6629F80A031D66292C
:1002C000F80CF90CFA0CF70A031970293A08C20065
:1002D0003E08C206C21F6E29F8177429F813742944
:1002E000F701F801F901FA0108002F08B1002E0802
:1002F000B0008E30F7003108F8003008F900FA013C
:10030000F808031D8D297908F800F9010830F70273
:10031000F808031D8D29F70195290310F81B94296E
:10032000F90DF80DF7038D29F8137A08BC00790848
:10033000BB007808BA007708B9002708C000260873
:10034000BF002508BE002408BD0000210800831658
:1003500003178C170C140000000083120C087F395F
:100360000319EB290313AC0003170D080313AD00A9
:1003700003170F080313AE002C08B900BD202D0889
:1003800003178D0003132E0803178F0083168C1795
:100390000C140000000083120C0D0E0D7F390319A0
:1003A000EB290313AC0003170D080313AD0003176B
:1003B0000F080313AE002C08B900BD202D08031749
:1003C0008D0003132E0803178F008D0A03198F0A5F
:1003D0000313A729031703130800831603178C17A9
:1003E0000C140000000003181C2A83120C087F392B
:1003F0000313AD0003170D080313AE0003170F0816
:100400000313AF002D08B900BD202E0803178D007F
:1004100003132F0803178F0083168C170C1400008A
:10042000000083120313AC0B162A192A8316031734
:100430001C2A3A2A8316031783120C0D0E0D7F39DE
:100440000313AD0003170D080313AE0003170F08C5
:100450000313AF002D08B900BD202E0803178D002F
:1004600003132F0803178F008D0A03198F0A031334
:10047000AC0BED290800F701F801F901FA01C101FF
:10048000C201C301C40140083F043E043D040319F6
:10049000792A2030C5000310B90DBA0DBB0DBC0D73
:1004A000C10DC20DC30DC40D40084402031D622AD4
:1004B0003F084302031D622A3E084202031D622ACE
:1004C0003D084102031C732A3D08C1023E08031C7B
:1004D0003E0FC2023F08031C3F0FC3024008031C2B
:1004E000400FC4020314F70DF80DF90DFA0DC50BFA
:1004F0004B2A41308400831308000408B1003008FF
:10050000B30003199C2A2F08BC002E08BB002D083D
:10051000BA002C08B900C001BF012030BE008230F3
:10052000BD0000217A08AF007908AE007808AD0060
:100530007708AC00B30B832A2F08BC002E08BB0041
:100540002D08BA002C08B9003908B63CB900FA01E8
:100550003A08BD00BA170310BA0CBB0CBC0CFA0C5D
:10056000F90CF80CF70CB90BAB2ABD1FC22AF7091E
:10057000F809F909FA09F70A0319F80A0319F90A37
:100580000319FA0A7A08AF007908AE007808AD00BE
:100590007708AC00AF1FD92AB103B116AC09AD0979
:1005A000AE09AF09AC0A0319AD0A0319AE0A031963
:1005B000AF0A3B30B8009A30B700CA30B600B50178
:1005C0000A30B30030080319B10A2F08BC002E0806
:1005D000BB002D08BA002C08B9003808C000370845
:1005E000BF003608BE003508BD003B220008AC0045
:1005F000840A0008AD00840A0008AE00840A0008DE
:10060000AF00FD308407F708031D192B300A3302B1
:100610000319192B310803191B2B0F393302031946
:10062000132B03184B2BB11B4B2B311B1B2B2030D7
:10063000472B2030B105B11E292BB1123008031D04
:10064000B1037708B1002D30B900BD203108F700A3
:10065000B10130083302031D372B7708B1002E306B
:10066000B900BD203108F7002030B105003030302E
:10067000B11E472BB1123008031DB1037708B1003A
:100680002D30B900BD203108F700B1013030F70737
:100690007708B900BD203808BC003708BB00360811
:1006A000BA003508B900C001BF01BE010A30BD0063
:1006B0003B227A08B8007908B7007808B6007708B6
:1006C000B500B30BE52A0800840183131F308305AE
:1006D00083161F149F141F159F118312A001A101DF
:1006E00083160108C03981000C30F70083128101A4
:1006F0008130840083130008F039073880006400DB
:100700000008F739F719F039770480000B138B13C1
:100710008B1B872B83168117033085008601870189
:1007200088018901831280286430BA003B200C3094
:10073000B900BD200830B900BD201F179F178316D0
:100740009F1783121F1483161F109F101F159F11D0
:1007500068308312A700E830A6001F30A50077306C
:10076000A4006400AC01E5207908AD007808AC0075
:100770007908AF007808AE0075217A08AB007908D7
:10078000AA007808A9007708A8000130BA00BB00C9
:10079000AB201B3003178D0000308F000313A721FF
:1007A0000130BA000230BB00AB20243003178D00AB
:1007B00000308F00031007300313AC00ED218930A7
:1007C00084002B08AF002A08AE002908AD002808D5
:1007D000AC000330B0007D225630B900BD2014308B
:1007E000AC00FA30BA003B20AC0BF12B0C30B90056
:1007F000BD200830B900BD200130AC00E5207908EB
:10080000AD007808AC007908AF007808AE0075211B
:100810007A08AB007908AA007808A9007708A80030
:100820000130BA00BB00AB202B3003178D00003025
:100830008F000313A7210130BA000230BB00AB20A8
:10084000343003178D0000308F000310073003137E
:10085000AC00ED21893084002B08AF002A08AE00DF
:100860002908AD002808AC000330B0007D225630C6
:10087000B900BD201430AC00FA30BA003B20AC0BFC
:100880003C2C0C30B900BD200830B900BD20B12B84
:02089000630003
:02400E00723FFF
:00000001FF
;PIC16F877
;CRC=4252  CREATED="17-set-17 12:25"
