:1000000000308A007F28000064000B138B138B1BC9
:100010000628A200030EA3000B1D44282408323C2E
:10002000031D3F28A508031D3F282808AB00AC018D
:100030002908AD002D086220F80086002C0B21282D
:1000400086172C0B2528861726288613071087105D
:10005000071187110130F7002B08F8000319342825
:100060000310F70DF80B3028770887040130A80734
:100070002808033C031CA801A501A4014328013062
:10008000A4070318A50A0B110C1C5B282608143CB6
:10009000031D5628A708031D56280130A907290863
:1000A000183C031CA901A701A6015A280130A60784
:1000B0000318A70A0C10C0308B04230E8300A20E75
:1000C000220E09000A108A100A1182073F340634F2
:1000D0005B344F3466346D347C3407347F346F3492
:1000E000773439345E34793471347D3476341E3467
:1000F000383454345C347334503478341C348401D0
:1001000083131F30830583161F149F141F159F111F
:100110008312A001A101FF30AA0083160108C03993
:100120008100B530831290002A152A0883168700B3
:1001300083129701AA142A088316870083129D014F
:10014000C0308B048B1683160C1481178501860131
:100150008701880189018312A501A401A701A601D5
:0A016000A801A9016400B2286300A1
:02400E00723FFF
:00000001FF
;PIC16F877
;CRC=453A  CREATED="24-set-17 07:31"
