:1000000000308A006428000064000B138B138B1BE4
:100010000628A200030EA3000B1D46282408323C2C
:10002000031D4128A508031D41284108C400C5013E
:100030004208C60028304607840083130008860063
:10004000450B23288617450B272886172828861353
:1000500007108710071187110130F7004408F800D6
:10006000031936280310F70DF80B32287708870498
:100070000130C1074108033C031CC101A501A401D3
:1000800045280130A4070318A50A0B110C1C5D2894
:100090002608143C031D5828A708031D58280130C2
:1000A000C2074208183C031CC201A701A6015C2834
:1000B0000130A6070318A70A0C10C0308B04230ECA
:1000C0008300A20E220E0900840183131F308305D2
:1000D00083161F149F141F159F118312A001A101E5
:1000E000FF30C30083160108C0398100B530831288
:1000F0009000431543088316870083129701C314A9
:1001000043088316870083129D01C0308B048B1631
:1001100083160C14811785018601870188018901E6
:100120008312A501A401A701A601C101C2013F30AC
:10013000A8000630A9005B30AA004F30AB00663043
:10014000AC006D30AD007C30AE000730AF007F30CA
:10015000B0006F30B1007730B2003930B3005E309C
:10016000B4007930B5007130B6007D30B70076301C
:10017000B8001E30B9003830BA005430BB005C30D3
:10018000BC007330BD005030BE007830BF001C3062
:08019000C0006400C9286300EF
:02400E00723FFF
:00000001FF
;PIC16F877
;CRC=9007  CREATED="23-set-17 17:56"
