:04000000E7EF04F032
:080008000400F29CF29EF2BE1E
:10001000FDD7066ED838076EC00EF2120738D86EBC
:10002000063A06381000F76A360FF66E000EF72211
:100030000900F5501200280C01064558454D504C5A
:100040004F203100546578746F004558454D504C31
:100050004F2032004558454D504C4F2033004E75CF
:100060006D65726F3A20253275004558454D504CEC
:100070004F2034004E756D65726F3A202564000084
:100080004558454D504C4F2035004E756D65726F8B
:10009000733A202564206520256400004558454DAD
:1000A000504C4F2036004E756D65726F3A202531E9
:1000B0002E3366004558454D504C4F2037004E7545
:1000C0006D65726F3A2025322E326500EA6A2D0E78
:1000D000E96EEF500EE0010E016E006A002EFED7B1
:1000E000012EFBD74A0E006E002EFED700D0EF2E59
:1000F000F2D7000C34B002D08A9001D08A8034B29A
:1001000002D08A9201D08A8234B402D08A9401D07B
:100110008A8434B602D08A9601D08A8600008A8A00
:1001200000D08A9A000C356A000E81B0010E35129B
:10013000000E81B2010E006ED890003600503512CC
:10014000000E81B4010E006E00360036FC0E001663
:1001500000503512000E81B6010E006E00360036DA
:100160000036F80E00160050351235C001F0000CB4
:1001700093809382938493868A8C00008A8A0000FD
:10018000D2DF01C034F08A9A00008A8A0000CBDFF7
:1001900001C033F08A9A9390939293949396343853
:1001A000006EF00E001600503310016EDAEF00F012
:1001B0008A98DED701C033F001BEFBD7315202E18D
:1001C0008A9801D08A8800008A9C00008A9A323876
:1001D000336E0F0E331633C034F08CDF32500F0BFA
:1001E000336E346E87DF000C9390939293949396C2
:1001F000939A9398939C8A988A9C8A9A0F0E2D6E54
:1002000065DF010E1A6E1A50030808E3030E346E00
:1002100071DF050E2D6E5ADF1A2AF5D7020E346EE5
:1002200069DF1A6A1A5003080EE3036A1A50F2CF04
:100230001BF0F29EF8DE1BBEF28E1B6E316A326E30
:10024000B7DF1A2AEFD718EF05F02E2C01D003D014
:10025000400E2F6E01D02F6A010E2D5C2F262F50DD
:100260008009306E316A326EA3DF000C2C500C0A0C
:1002700005E0060A0BE0020A0FE013D0316A010E16
:10028000326E96DF020E2D6E21DF11D0010E2D6E23
:10029000020E2E6EDADF0BD0316A100E326E88DF5E
:1002A00006D0010E316E2CC032F082DF00D0000C7F
:1002B0000900F5520CE0F6CF1AF0F7CF1BF0F5CF9E
:1002C0002CF0D4DF1AC0F6FF1BC0F7FFF1D7000CEB
:1002D0000900F6CF1BF0F7CF1CF0F5CF2CF0C6DFEE
:1002E0001BC0F6FF1CC0F7FF1A2EF2D7000C2150DE
:1002F000016A205C03E220C000F00CD0006A080E06
:10030000226E203600362150005CD8B0006E0136D7
:10031000222EF7D7000C01501AC020F0640E216E77
:10032000E6DF00C01AF00150300E07E11BA20CD02E
:100330001BB60AD01BB8200E03D01B961B981B803F
:10034000012601C02CF092DF1AC020F00A0E216EA7
:10035000CEDF00C01AF00150300E06E11BB608D007
:100360001BA006D01BB8200E012601C02CF07EDF9A
:10037000300E1A261AC02CF079DF84EF05F0200E1B
:100380001BA8300E1C6E1AC000F01AAE07D0001E5B
:10039000002A00C01AF02D0E1C6E1B8E01501AC0D0
:1003A00020F0640E216EA3DF00C01AF0300E01248D
:1003B0001D6E1AC020F00A0E216E99DF300E002447
:1003C0001F6E300E01241E6E1CC000F01BA602D052
:1003D0001BAE1B941BB80BD01BAE22D01BB420D07D
:1003E00000C01DF01BB21CD000C01EF019D0300E92
:1003F0001D5C16E100C01DF0200E1C6E1BA604D073
:100400001B941B821BAE1B92300E1E5C09E100C0C8
:100410001EF0200E1D6E1BA6F7D71B921BAE1B9065
:100420001BA403D01CC02CF021DF1BA203D01DC0D5
:100430002CF01CDF1BA003D01EC02CF017DF1FC048
:100440002CF014DF000C2750D8B471D0006E2B5064
:10045000D8B46DD0002604E3810E002668E204D0F3
:100460007F0E005E64E363E028C02FF02C502F1A4B
:10047000288E2C8E2A502E02F4CF31F029502D02D6
:10048000F4CF03F0F3CF30F02E02F3503126F450C6
:100490003022000E03222A502D02F3503126F45050
:1004A0003022000E026A0322022228502E02F3504C
:1004B0003026F4500322000E022228502D02F35061
:1004C0000326F4500222000E016A01222A502C0257
:1004D000F3503026F4500322000E0222012229504C
:1004E0002C02F3500326F4500222000E0122285061
:1004F0002C02F3500226F4500122002A01BE05D03E
:1005000030360336023601360006000E30AE0AD011
:10051000032A02220122015005E1025003E10350A7
:1005200001E1002A2FBE018E2FAE019E04D0006A89
:10053000016A026A036A0EEF03F02750B608276EBD
:10054000036A28C02BF0288ED890283229322A320C
:100550000332023201320032272EF6D72BAE0BD0F7
:10056000001E011E021E031E002AD8B4012AD8B4A0
:10057000022AD8B4032A21EF03F0006A016A026A52
:10058000036A2F6A306A316A326A2E502D102C109D
:100590002B102CE0200E336ED890273628362936C3
:1005A0002A362F363036313632362E50325C08E15C
:1005B0002D50315C05E12C50305C02E12B502F5C5A
:1005C0000FE32B502F5E2C50D8A02C3C305E2D50CA
:1005D000D8A02D3C315E2E50D8A02E3C325ED88063
:1005E0000036013602360336332ED6D7EA6A2F0E8E
:1005F000E96E000CE9501F6E1E50216E19E01DC0FF
:100600002AF01CC029F01BC028F01AC027F02E6A5F
:100610002D6A200E2C6E820E2B6E15D703C01DF096
:1006200002C01CF001C01BF000C01AF0212EE7D759
:100630001DC02AF01CC029F01BC028F01AC027F0EA
:100640007CD703C01DF002C01CF001C01BF000C02D
:100650001AF01DAE0DD01F061F8A1A1E1B1E1C1E6F
:100660001D1E1A2AD8B41B2AD8B41C2AD8B41D2A95
:100670003B0E266E9A0E256ECA0E246E236A0A0E53
:10068000216E1E50D8B41F2A1DC02AF01CC029F0AC
:100690001BC028F01AC027F026C02EF025C02DF070
:1006A00024C02CF023C02BF068DF0150EFCF1AF0EC
:1006B000ECCF1BF0ECCF1CF0ECCF1DF000520FE1A3
:1006C0001E28215C0CE01F500CE00F0B215C01E0A8
:1006D00037E21FBE35D01FBC04D0200E2DD0200E17
:1006E0001F161FAA0CD01F9A1E50D8A41F06005018
:1006F0001F6E2D0E2C6EBADD1F50006E1F6A1E502D
:10070000215C0AE100501F6E2E0E2C6EAFDD1F50D3
:10071000006E200E1F16000E300E1FAA0DD01F9A5D
:100720001E50D8A41F0600501F6E2D0E2C6E9EDD8D
:100730001F50006E1F6A300E002600C02CF096DDA0
:1007400026C02AF025C029F024C028F023C027F0B5
:100750002E6A2D6A2C6A0A0E2B6E0FDF03C026F05C
:1007600002C025F001C024F000C023F0212E8CD758
:100770001DEF06F01EC027F01FC028F0296A1BAE2F
:1007800002D0278C28061B8E1A50D8B498D07F0E22
:100790001A5C55E31A6E2A6A040E2B6ED8901D3629
:1007A0001C361B3629362B2EF9D7040E1A5C08E2AC
:1007B000030E1A5CD8A47CD00A0E295CD8A078D08D
:1007C000030E1A5E2A2AF8D8D8901D361C361B361E
:1007D0002936DDD8020E2B6ED89029321B321C32FE
:1007E0001D322B2EF9D7E8D8040E2B6ED8901E326E
:1007F0001F32203221322B2EF9D7C9D8DDD820C0A4
:1008000021F01FC020F01EC01FF01E6AC0D8D4D82F
:100810001FC021F01EC020F01E6A1F6AB8D829B67A
:10082000C4D71A5205E11D2A1C2A1B2A292A40D0A6
:10083000D8901D361C361B3629361A06B6D71A1E16
:100840001A2A7F0E1A262A6A040E2B6ED8901D369D
:100850001C361B3629362B2EF9D7040E1A26050E08
:100860001A5C34E3A9D8D8901D361C361B362936BD
:10087000D8901D361C361B36293689D8D8901D369F
:100880001C361B3629362A2A030E2B6ED8902932A5
:100890001B321C321D322B2EF9D7030E1A5E29A8EB
:1008A000DED7D89029321B321C321D321A06D7D718
:1008B0001A1E1A2A030E1A262B0E2B6E0AD0296A2C
:1008C0001B6A1C6A1D6A2B6A2A6A03D01A062D0E3F
:1008D0002B6E27AC05D02D0E2C6EC8DC279E279CD6
:1008E000236A29C022F01A5005E0246ED8902232E3
:1008F000242EFCD727C024F02350245C25E3300E9F
:1009000022242C6EB3DC235203E12E0E2C6EAEDCBF
:10091000232A1A5005E0246ED8902236242EFCD7C4
:100920002250295E49D8D8901D361C361B362936F0
:10093000D8901D361C361B36293629D8D8901D363E
:100940001C361B362936CDD7450E2C6E8FDC2B502E
:1009500002E02C6E8BDC256A2AC026F00A0E265E89
:100960000DE3252A265EFDE22626300E25242C6E78
:100970007DDC300E26242C6E79DC08D02626300E45
:100980002C6E74DC300E26242C6E70DC1ED02150B0
:100990001D2605E31C2A03E11B2A01E1292A205018
:1009A0001C2603E31B2A01E1292A1F501B26D8B06D
:1009B000292A1E502926000C29C01EF01BC01FF03A
:1009C0001CC020F01DC021F0000C54EF06F0F86AA6
:1009D000D09EEA6AE96AC150C00B0F09C16E070ECA
:1009E000B46E046A056A4F0E086E6C0E096E610ED5
:1009F0000A6E200E0B6E4D0E0C6E750E0D6E6E0E89
:100A00000E6E640E0F6E6F0E106E210E116E800E44
:100A1000D56EB50ECD6ED190F29CF29EF2BEFDD792
:100A2000F18E926A936A946A956A966AF4EF00F07E
:100A3000640E2D6E66EC00F00400010E2D6E2E6E1D
:100A400004DC3A0EF66E000EF76E32DC030E2D6EED
:100A5000020E2E6E25EC01F0440EF66E000EF76EBF
:100A600027DC140E1A6EFA0E2D6E66EC00F01A2EAC
:100A7000FAD7010E2D6E2E6E25EC01F04A0EF66EA1
:100A8000000EF76E15DC030E2D6E020E2E6E25EC99
:100A900001F0126A125009080FE3036A1250080F9E
:100AA000E96E000E0320EA6EEFCF1AF01AC02CF0A8
:100AB00036EC01F0122AEED7140E1A6EFA0E2D6ED5
:100AC00066EC00F01A2EFAD7010E2D6E2E6E25EC74
:100AD00001F0540EF66E000EF76E58EC01F0010EA8
:100AE0002D6E020E2E6E25EC01F0390E136E5E0E89
:100AF000F66E000EF76E080E1A6E68EC01F013C069
:100B00001AF0110E1B6E07D4140E1A6EFA0E2D6E0B
:100B100066EC00F01A2EFAD7010E2D6E2E6E25EC23
:100B200001F06A0EF66E000EF76E58EC01F0010E41
:100B30002D6E020E2E6E25EC01F0F20E146E740E68
:100B4000F66E000EF76E080E1A6E68EC01F014C017
:100B50001AF01F0E1B6E13DC140E1A6EFA0E2D6E99
:100B600066EC00F01A2EFAD7010E2D6E2E6E25ECD3
:100B700001F0800EF66E000EF76E58EC01F0010EDB
:100B80002D6E020E2E6E25EC01F0F20E146E8A0E02
:100B9000F66E000EF76E090E1A6E68EC01F014C0C6
:100BA0001AF01F0E1B6EBFEC01F0200E2C6E36ECFF
:100BB00001F0650E2C6E36EC01F0200E2C6E36EC3A
:100BC00001F013C01AF01F0E1B6EBFEC01F0140EE3
:100BD0001A6EFA0E2D6E66EC00F01A2EFAD7010E80
:100BE0002D6E2E6E25EC01F09C0EF66E000EF76E4B
:100BF00058EC01F0010E2D6E020E2E6E25EC01F068
:100C0000C50E186E200E176E300E166E7A0E156E0B
:100C1000A60EF66E000EF76E080E1A6E68EC01F066
:100C2000890EE96E18C01DF017C01CF016C01BF02D
:100C300015C01AF0030E1E6EDDD4140E1A6EFA0ED5
:100C40002D6E66EC00F01A2EFAD7010E2D6E2E6E68
:100C500025EC01F0B40EF66E000EF76E58EC01F0C4
:100C6000010E2D6E020E2E6E25EC01F0C50E186ED3
:100C7000200E176E300E166E7A0E156EBE0EF66EC4
:100C8000000EF76E080E1A6E68EC01F018C01DF029
:100C900017C01CF016C01BF015C01AF0216A206A9C
:100CA000020E1F6E1E6E66D5140E1A6EFA0E2D6E93
:0C0CB00066EC00F01A2EFAD7BFD6030045
:020000040030CA
:0E00000000C21E1E008781000FC00FE00F40DF
:00000001FF
;PIC18F4520
;CRC=45D1  CREATED="29-out-17 13:59"
