:1000000001308A004229000064000B138B138B1B04
:100010000628A200030EA300C0308B04230E830029
:10002000A20E220E09000A108A100A118207283433
:100030000C34013406340A108A100A1182074C3439
:1000400069346E34683461342034313400340A1039
:100050008A100A1182074C3469346E346834613472
:100060002034323400340A108A100A1182074C34CA
:1000700069346E34683461342034333400340A1007
:100080008A100A1182074C3469346E346834613442
:1000900020343434003426308400831300080319DC
:1000A0005F280130F800F701F70B5428F80B5328AC
:1000B0004A30F700F70B5A285D28800B51280800BA
:1000C0002D186428061265280616AD1869288612B0
:1000D0006A2886162D196E2806136F280617AD1983
:1000E00073288613742886170000061577280611D2
:1000F0000800AE010030061A0130AE040030861A46
:100100000130F7000310F70D7708AE040030061B2E
:100110000130F700F70DF70DFC30F7057708AE0456
:100120000030861B0130F700F70DF70DF70DF830A2
:10013000F7057708AE042E08F800080006108316AD
:1001400006168616061786178312861400000615F3
:10015000000079207808AD000611000006150000A7
:1001600079207808AC000611831606128612061351
:10017000861383122D0EF700F030F70577082C0454
:10018000F8007808AC00AC1B9F28AA08031DCA28F9
:100190000610CB28061400008610000006112B0E56
:1001A000AC000F30AC052C08AD0060202B080F39D7
:1001B000AC00AD00602008008316061286120613FC
:1001C000861306110610861083120610861006117B
:1001D0000F30A6004B200130A4002408033C031C70
:1001E000F9280330AD0060200530A6004B20A40A9A
:1001F000ED280230AD006020A4012408033C031C5C
:100200000A2924081320A500AA012508AB009E2076
:10021000A40AFD286C29270B0E2911294030A800BB
:100220001229A80101302602A80728088038A90051
:10023000AA012908AB009E20080025080C3A0319E2
:100240002829063A03193029023A031936293B298D
:10025000AA010130AB009E200230A6004B204129AC
:100260000130A6000230A7000B214129AA0110305D
:10027000AB009E2041290130AA002508AB009E203A
:1002800041290800840183131F30830507309F0034
:10029000A001A10183160108C0398100B530831285
:1002A00090000C30F7008101813084008313000836
:1002B000F0390738800064000008F739F719F03981
:1002C000770480000B138B138B1B63298316811714
:1002D000850186018312DC286430A6004B2064006F
:1002E0000C30A5001D210130A600A7000B21A401A0
:1002F00024081B20A40AF700A5001D2107302402B2
:10030000031D78290130A6000230A7000B21A401AB
:1003100024082720A40AF700A5001D210730240285
:10032000031D88291530A6000130A7000B21A40168
:1003300024083320A40AF700A5001D210730240259
:10034000031D98291530A6000230A7000B21A40137
:1003500024083F20A40AF700A5001D21073024022D
:10036000031DA8291430A400FA30A6004B20A40BCA
:06037000B4296F296300AF
:02400E00623F0F
:00000001FF
;PIC16F628
;CRC=278A  CREATED="30-ago-17 21:06"
