:1000000002308A00672A000064000B138B138B1BDD
:100010000628A200030EA30000308C1A0130F8005D
:10002000780B4728181D18280230F8002A281811C4
:10003000981C1E280330F8002A2898108C1A2328B0
:100040000030F8002A288C1E2A281A08AA0001303D
:10005000F8002A28780B4628A808031937282630E4
:100060002807840083132A088000A80124142A0882
:10007000BA003A103A08A03C031D4528A808031D01
:1000800045282A08A6000130A8074728AA200C1CEA
:1000900057282908043C031D5428A808031952288E
:1000A000AA20A414A90156280130A9070C10C030B9
:1000B0008B04230E8300A20E220E09000A108A1060
:1000C0000A11820728340F3401340634D434ED3257
:1000D000AD37753A2E172E00C133F53072326137C5
:1000E000E4372E172E00523C3A10A53A0000D030CB
:1000F000F234E430E4323A10A53A00014539F237DF
:10010000202861396932613265170000831618139F
:1001100083123B1C8E2883161817831218133B1862
:1001200018178316981283123D1C99288316981667
:1001300083128316181283123C1CA12883161816EA
:10014000831298133E18981718123F181816181192
:1001500098100800A801BB01BC010130BD00BE0120
:10016000BF008620BB01BC010130BD00BE00BF0046
:10017000862008008316181183122C1CC2288316AF
:10018000181583122D088316990083128A110A12FA
:100190009D2A83168C1283122D1CD12883168C164F
:1001A000831283160C1283122C1CD92883160C166A
:1001B000831298112E1898158A110A12BA2A323011
:1001C0008400831300080319F2280630F800F701B1
:1001D000F70BE828F80BE7287B30F700F70BEE2841
:1001E000800BE52808003918F7280611F8280615AD
:1001F000B918FC288611FD2886153919012906121F
:1002000002290616B91906298612072986168614A8
:10021000861008000610B608031D102906101129C3
:100220000614A630F700F70B132900008610370ECE
:10023000B8000F30B8053808B900F32037080F3977
:10024000B800B900F32008000611861106128612C4
:10025000061086100F30B200DF200130AC002C08F1
:10026000033C031C3B290330B900F3200530B200E6
:10027000DF20AC0A2F290230B900F320AC012C0892
:10028000033C031C4C292C085E20AD00B6012D0850
:10029000B7000A21AC0A3F298A110A12BB2A330B84
:1002A000522955294030B4005629B4010130320298
:1002B000B40734088038B500B6013508B7000A2104
:1002C000080031080C3A03196F29063A03197729F7
:1002D000073A03197729053A03197D298229B601BE
:1002E0000130B7000A210230B200DF208829013036
:1002F000B2000230B3004F218829B6011030B70098
:100300000A2188290130B6003108B7000A2188295E
:100310000800831603178C170C14000000008312CA
:100320000C087F390319CD290313AC0003170D08FE
:100330000313AD0003170F080313AE002C08B10020
:1003400061212D0803178D0003132E0803178F005A
:1003500083168C170C140000000083120C0D0E0D78
:100360007F390319CD290313AC0003170D080313BC
:10037000AD0003170F080313AE002C08B100612174
:100380002D0803178D0003132E0803178F008D0A05
:1003900003198F0A0313892903170313080083160F
:1003A00003178C170C14000000000318FE29831299
:1003B0000C087F390313AE0003170D080313AF00B9
:1003C00003170F080313B0002E08B10061212F0896
:1003D00003178D000313300803178F0083168C1743
:1003E0000C140000000083120313AD0BF829FB2945
:1003F00083160317FE291C2A8316031783120C0D7C
:100400000E0D7F390313AE0003170D080313AF0061
:1004100003170F080313B0002E08B10061212F0845
:1004200003178D000313300803178F008D0A03197B
:100430008F0A0313AD0BCF2908003008F8012F02F3
:100440000318252A2F08F700312AF7010830B100D8
:10045000AF0DF70D300877020318F700F80DB10B58
:10046000282A080078082D08AF006430B0001D224B
:100470007708AD0078083030031D452AAE1C4C2AA1
:10048000AE194C2A2E1A2030482AAE112E122E14E4
:10049000F8077808B10061212D08AF000A30B000DC
:1004A0001D227708AD0078083030031D5D2AAE1993
:1004B000612A2E1C612A2E1A2030F8077808B10014
:1004C00061213030AD072D08B100612108008401A1
:1004D00083131F30830583161F149F141F159F114C
:1004E0008312A001A101FF30AB0083160108C039BF
:1004F0008100B530831290002B152B0883168700DE
:1005000083129701AB142B088316870083129D0179
:100510000C30F70081018130840083130008F0392A
:100520000738800064000008F739F719F0397704BC
:100530008000AC01FF30AD00BA2880018B1B801712
:100540008B13BB01BC010130BD00BE00BF00862083
:10055000801B8B1783160C14811785018601803050
:1005600087008801C03083128B04AC010130AD00DC
:10057000AE01C92824296430B200DF200C30B1005C
:1005800061210830B10061210C30B10061210830D7
:10059000B10061210130B200B3004F216C3003176C
:1005A0008D0000308F0003138921A801A501A90146
:1005B000A4106400241C4F2B2708AC000730AD00AA
:1005C0002E10AC1B2E14AD080319FF2A0130AD020A
:1005D00000302E180130AF002C08F7002D08F8006D
:1005E0000319F62A0310F70CF80BF22A00307718DB
:1005F00001302F06F8002E1078182E14E32A003050
:100600002E180130F8007808AC00003026180130B0
:100610002C02031D3D2B0C30B10061210830B100CC
:1006200061210130B200B3004F21733003178D00F8
:1006300000308F00031004300313AD00CF212708D2
:10064000AD001B30AE0032220130B2000230B300E8
:100650004F21003026180130AC00773003178D0091
:1006600000308F0003100A300313AD00CF212C0897
:10067000AD001B30AE0032224E2B0C30B100612198
:100680000830B10061210130B200B3004F217E304B
:1006900003178D0000308F00031389212410A41C40
:1006A000632B0C30B10061210830B10061210130B1
:1006B000B200B3004F21663003178D0000308F0069
:0A06C00003138921A410D92A630056
:02400E00723FFF
:00000001FF
;PIC16F877
;CRC=C468  CREATED="17-out-17 18:19"
