:1000000001308A002129000064000B138B138B1B25
:100010000628A200030EA300C0308B04230E830029
:10002000A20E220E09000A108A100A118207283433
:100030000F34013406340A108A100A118207313451
:100040003634463438343734373441340034C522FA
:100050005029CF26A0244E2A4529CE200000393031
:10006000840083130008031942280630F800F701C2
:10007000F70B3828F80B37287B30F700F70B3E28B2
:10008000800B352808004018472806104828061419
:10009000C0184C2886104D28861440195128061186
:1000A00052280615C0195628861157288615861617
:1000B000861208000612BD08031D6028061261287A
:1000C0000616A630F700F70B6328000086123E0ED6
:1000D000BF000F30BF053F08C00043203E080F3966
:1000E000BF00C000432008000610861006118611CC
:1000F000061286120F30B9002F200130B5003508E6
:10010000033C031C8B280330C00043200530B9009A
:100110002F20B50A7F280230C0004320B5013508E2
:10012000033C031C9C2835081320B600BD0136088B
:10013000BE005A20B50A8F288A110A1250293A0B9C
:10014000A228A5284030BB00A628BB0101303902F7
:10015000BB073B088038BC00BD013C08BE005A20EC
:10016000080038080C3A0319BF28063A0319C728B3
:10017000073A0319C728053A0319CD28D228BD012B
:100180000130BE005A200230B9002F20D82801309B
:10019000B9000230BA009F20D828BD011030BE003F
:1001A0005A20D8280130BD003808BE005A20D8286F
:1001B0000800831603178C170C140000000083122C
:1001C0000C087F3903191D290313B50003170D0807
:1001D0000313B60003170F080313B7003508B80060
:1001E000B120360803178D000313370803178F005B
:1001F00083168C170C140000000083120C0D0E0DDA
:100200007F3903191D290313B50003170D080313C4
:10021000B60003170F080313B7003508B800B12064
:10022000360803178D000313370803178F008D0A54
:1002300003198F0A0313D928031703138A110A120B
:10024000A529840183131F30830583161F149F146F
:100250001F159F118312A001A10183160108C03947
:1002600081000C30F70083128101813084008313F8
:100270000008F0390738800064000008F739F719E2
:10028000F039770480000B138B138B1B44298316E2
:1002900081178501860187018801890183127428ED
:1002A0006430B9002F200C30B800B1200830B800FD
:1002B000B120A401B501B6012530840083133508AF
:1002C000840736081B208000003803196A29B60A03
:1002D000B50A5C29640024080F3C031C9A290430E9
:1002E0002407B50025302407840083130008B600D6
:1002F000350803178D000313360803178C00831687
:100300008C130C15831203130B08F7008B13831641
:10031000031755308D00AA308D008C148C188E294F
:100320000C117708831203138B040230B9002F20BD
:10033000A40A6B290130B900BA009F2027300317A7
:100340008D0000308F000313D9280130B90002302E
:10035000BA009F20A40124080F3C031CBE292408D6
:1003600003178D0083168C130C1483120C080313CF
:10037000B5003508B800B120A40AAB291430B50087
:10038000FA30B9002F20B50BC0290C30B800B120CD
:0A0390000830B800B1206A296300AC
:084200005000490043002000BA
:02400E00723FFF
:00000001FF
;PIC16F877
;CRC=681D  CREATED="17-set-17 15:19"
