:1000000000308A003528000064000B138B138B1B13
:100010000628A200030EA3000B1D1E282408143C72
:10002000031D1B28261C1728051026101928051447
:100030002614A4011D280130A4070B110C1C2E2826
:10004000250B2B28A61C27288510A61029288514E7
:10005000A614A5012D280130A5070C10C0308B0473
:10006000230E8300A20E220E0900840183131F3089
:10007000830583161F149F141F159F118312A0015F
:10008000A101FF30A70083160108C0398100B530F7
:100090008312900027152708831687008312970183
:1000A000A71427088316870083129D01C0308B0494
:1000B0008B1683160C148117850186018701880130
:0E00C00089018312A401A50164006428630075
:02400E00723FFF
:00000001FF
;PIC16F877
;CRC=4D48  CREATED="23-set-17 18:07"
