:1000000000308A003528000064000B138B138B1B13
:100010000628A200030EA3000B1D1E282408C83CBE
:10002000031D1C28261C1728051026101928051446
:1000300026140B11A4011E280130A4070C1C2E2825
:10004000250B2C28A61C27288510A61029288514E6
:10005000A6140C10A5012E280130A507C0308B0472
:10006000230E8300A20E220E0900840183131F3089
:10007000830583161F149F141F159F118312A0015F
:10008000A101FF30A70083160108C0398100953017
:100090008312900027152708831687008312970183
:1000A000A71427088316870083129D01C0308B0494
:1000B0008B1683160C148117850186018701880130
:0E00C00089018312A401A50164006428630075
:02400E00723FFF
:00000001FF
;PIC16F877
;CRC=174B  CREATED="11-set-17 23:42"
