:1000000000308A00BA28000064000B138B138B1B8E
:100010000628A300030EA400C0308B04240E830026
:10002000A30E230E09000830F80000008711A2116A
:1000300022088316870000008312A50D0712031CF7
:10004000272822162208831687002B2883122212C3
:1000500022088316870000008312A2152208831647
:1000600087008312871D3228F80B1528000087119E
:10007000A21122088316870000008312221622088C
:1000800083168700000000008312A2152208831641
:1000900087008312871D4A28F8010000071A781488
:1000A0008711A211220883168700831207122212D9
:1000B00022088316870083120800253084008313EA
:1000C0000008031970280630F800F701F70B6628BE
:1000D000F80B65287B30F700F70B6C28800B632842
:1000E0008A110A1236290830A6007708A7002216BE
:1000F00022088316870000008312A21522088316A7
:1001000087008312871D8228071A0314071E031015
:10011000F80D0000A21122088316870083128711B0
:10012000A60B772822162208831687000000831268
:10013000071227080319A128221222088316870014
:1001400083120000A2152208831687008312871DE0
:10015000A72800008711A21122088316870000003B
:1001600083120712221222088316870083128A1133
:100170000A128729840183131F30830583161F14F5
:100180009F141F159F118312A001A101FF30A2002F
:1001900083160108C03981000C30F70083128101F9
:1001A0008130840083130008F03907388000640030
:1001B0000008F739F719F039770480000B138B1317
:1001C0008B1BDF2883168117850186018701880133
:1001D0008901831288016400221622088316870091
:1001E0000430F700F70BF2288312A21522088316B9
:1001F00087000330F700F70BFB2883120712221247
:100200002208831687000430F700F70B05298312B4
:100210008711A211220883168700A0308312A5003F
:1002200013200530A5001320F030A5001320221262
:1002300022088316870000008312A2152208831665
:1002400087008312871D22290430F700F70B262927
:100250002929000022162208831687000430F7009F
:10026000F70B30290B308312A5005D2822162208D7
:10027000831687000430F700F70B3C298312A21580
:100280002208831687000330F700F70B45298312F5
:10029000071222122208831687000430F700F70B9A
:1002A0004F2983128711A211220883168700A030DC
:1002B0008312A50013200530A50013202216220862
:1002C000831687000430F700F70B64298312A21508
:1002D0002208831687000330F700F70B6D2983127D
:1002E000871D702907122212220883168700043006
:1002F000F700F70B792983128711A21122088316C0
:100300008700A1308312A5001320F7017328780815
:100310008800221222088316870000008312A2158B
:100320002208831687008312871D94290430F70062
:10033000F70B98299B2900002216220883168700B4
:0E0340000430F700F70BA2298312EB286300AC
:02400E00723FFF
:00000001FF
;PIC16F877
;CRC=E736  CREATED="20-set-17 18:38"
