:1000000000308A009728000064000B138B138B1BB1
:100010000628A200030EA30000308C1A0130F8005D
:10002000780B3C28181D18280230F8002A281811CF
:10003000981C1E280330F8002A2898108C1A2328B0
:100040000030F8002A288C1E2A281A08A500013042
:10005000F8002A28780B2E2824143C28AB01AC0188
:100060000130AD00AE01AF004320AB01AC01013067
:10007000AD00AE00AF004320C0308B04230E8300E0
:10008000A20E220E09008316181383122B1C4B2874
:1000900083161817831218132B1818178316981223
:1000A00083122D1C56288316981683128316181255
:1000B00083122C1C5E2883161816831298132E1890
:1000C000981718122F181816181198100800831670
:1000D00018118312261C6F288316181583122708FF
:1000E000831699008312BA2883168C128312271C58
:1000F0007C2883168C16831283160C128312261CFE
:10010000842883160C168312981128189815D42861
:10011000241C96282508A600260899004130A50031
:100120002508413C031D952805142410D828840176
:1001300083131F30830507309F00A001A1018316A0
:100140000108C03981000C30F70083128101813031
:10015000840083130008F039073880006400000829
:10016000F739F719F039770480000130A60019300B
:10017000A700672880018B1B80178B13AB01AC0194
:100180000130AD00AE00AF004320801B8B178316FB
:100190008117850102308600C03083128B04A601CE
:1001A0000130A700A80174280510A5016400882863
:0401B000D6286300EA
:02400E00623F0F
:00000001FF
;PIC16F628
;CRC=E835  CREATED="20-jul-17 17:39"
