:04000000A6EF00F077
:08000800046ED8CF05F0E0CF33
:1000100006F00001E9CF0CF0EACF07F0E1CF08F0DD
:10002000E2CF09F0D9CF0AF0DACF0BF0F3CF12F01C
:10003000F4CF13F0FACF14F000C00EF001C00FF0AF
:1000400002C010F003C011F09DAA2AEF00F09EBA82
:100050006AEF00F00EC000F00FC001F010C002F017
:1000600011C003F00CC0E9FF07C0EAFF078E08C00B
:10007000E1FF09C0E2FF0AC0D9FF0BC0DAFF12C0DE
:10008000F3FF13C0F4FF14C0FAFF045006C0E0FFF2
:1000900005C0D8FF1000ABA404D0010E016E11D032
:1000A000AB94ABA204D0030E016E0BD0AB929EBA00
:1000B00003D0000E016E05D09EAA03D0010E016E82
:1000C00000D06CEF00F09EAAFED7AECF18F01980DA
:1000D00075EF00F09D9ADFD70150020A03E0010A94
:1000E00002E002D002D001D0EED79D8A9E9A2AEF7C
:1000F00000F09EA8FED7AD6E000C000EACB2010E53
:10010000016E98EF00F0EA6A1A0EE96EEF500DE00A
:10011000060E016E006A002EFED7012EFBD77B0E65
:10012000006E002EFED7EF2EF3D79DEF00F0E5D73F
:10013000012C04D0010E1A6EE6D7F9D7000C185026
:10014000730801E1838E1990E6EF00F0F86AD09E03
:10015000078EEA6AE96AB886080EAF6E020EB06EC4
:10016000A60EAC6E900EAB6E00000000C150C00B2E
:100170000F09C16E070EB46E166A176A800ED56E2F
:10018000B50ECD6ED190F18E926A936A800E946E08
:10019000956A966AC00EF2129D8A19904C0EA9DFDC
:1001A000C6DF650EA6DFC3DF610EA3DFC0DF6E0E04
:1001B000A0DFBDDF640E9DDFBADF720E9ADFB7DF0E
:1001C0006F0E97DFB4DF04001980B9D7FCD70300A6
:020000040030CA
:0E00000000C21E1E008781000FC00FE00F40DF
:00000001FF
;PIC18F4520
;CRC=F77B  CREATED="29-out-17 16:35"
