:04000000D9EF0DF037
:080008000400F29CF29EF2BE1E
:10001000FDD7066ED838076EC00EF2120738D86EBC
:10002000063A06381000F76A360FF66E000EF72211
:100030000900F5501200000000000000005F000001
:100040000003000300143E143E14242A7F2A1243A6
:100050003308666136495522500005030000001C34
:100060002241000041221C0014083E081408083EEA
:100070000808005030000008080808080060600008
:100080000020100804023E5149453E0004027F0052
:10009000426151494622414949361814127F1027BE
:1000A000454545393E4949493201017109073649FB
:1000B000494936264949493E003636000000563641
:1000C00000000814224100141414141400412214D6
:1000D0000802015109063E4159555E7E0909097E13
:1000E0007F494949363E414141227F4141413E7F5E
:1000F000494949417F090909013E4141493A7F087F
:1001000008087F00417F4100304040403F7F081495
:1001100022417F404040407F020C027F7F02040862
:100120007F3E4141413E7F090909061E2121215E92
:100130007F0909097600F76A460FF66E010EF7226D
:100140000900F5501200264949493201017F010199
:100150003F4040403F1F2040201F7F2010207F4114
:10016000221C224107087008076151494543007F5E
:1001700041000002040810200000417F0004020139
:100180000204404040404000010204002054545406
:10019000787F444444383844444444384444447F99
:1001A000385454541804047E0505085454543C7FB4
:1001B0000804047800447D40002040443D007F1046
:1001C00028440000417F40007C047804787C0804C7
:1001D000047838444444387C141414080814141463
:1001E0007C007C080404485454542004043F4444D4
:1001F0003C4040207C1C2040201C3C4030403C4483
:10020000281028440C5050503C4464544C4400087E
:1002100036414100007F00004141360800020102E2
:100220000402300FF66E020EF7220900F55012009C
:1002300000000000000000000000000000000000BE
:1002400000000000000000000000000000000000AE
:10025000000000000000000000000000000000009E
:10026000000000000007FF00000000000000000088
:1002700000000000003FFFF0000000000000000050
:100280000000000000FFFFF0000000000000000080
:100290000000000003FFFFF8000000000000000065
:1002A0000000000007FFFFFC00000000000000004D
:1002B000000000001FFFFFFC000000000000000025
:1002C000000000003FFFFFFE0000000000000000F3
:1002D000000000007FFFFFFD0000000000000000A4
:1002E00000000000FFCFFF8F0000000000000000B2
:1002F00000000000ED87FF07800000000000000004
:1003000000000001FF03FF03C00000000000000028
:1003100000000003FE01FC03C0000000000000001C
:1003200000000003FE01FC01E000000000000000EE
:1003300000000007FC00FC01E000000000000000DD
:1003400000000007F8007800F00000000000000046
:1003500000000007F80070007800000000000000B6
:100360000000000FFC0038007800000000000000D2
:100370000000000FFE003C003C00000000000000F8
:100380000000000FEE001C001E0000000000000036
:100390000000000FCF000E001E0000000000000053
:1003A0000000000F87000F000F0000000000000099
:1003B0000000000F038007000F0000000000000095
:1003C0000000000E01C00380078000000000000054
:1003D0000000000E01C003C0038000000000000008
:1003E0000000000C00E001C00380000000000000DD
:1003F0000000000800F000E00180000000000000A4
:100400000000000800F000F0008000000000000084
:100410000000000000F800700080000000000000F4
:100420000000000000F8007800000000000000005C
:100430000000000001FC00FC0000000000000000C3
:100440000000000003FE01FC0000000000000000AE
:100450000000000007FE01FE000000000000000098
:100460000000000007FF03FE000000000000000085
:10047000000000000FFF87FF0000000000000000E8
:10048000000000001FFF87FF800000000000000048
:10049000000000001FFFFFFF8000000000000000C0
:1004A000000000003FFFFFFFC00000000000000050
:1004B000000000001FFFFFFFC00000000000000060
:1004C0000000000007FFFFFF8000000000000000A8
:1004D0000000000003FFFFFE00000000000000001D
:1004E0000000000000FFFFF8000000000000000016
:1004F00000000000003FFFE00000000000000000DE
:10050000000000000003FF000000000000000000E9
:1005100000000000000000000000000000000000DB
:1005200000000000000000000000000000000000CB
:1005300000000000000000000000000000000000BB
:1005400000000000000000000000000000000000AB
:10055000000000000000000000000000000000009B
:100560000601C000000000000000000000000000C4
:100570000F03C000000000000000000000000000A9
:100580000F83C00000000000000000000000000019
:100590000F87E73FF7FE3FE3FF70677FE000000053
:1005A0000FC7E73FF7FF7FF3FF70777FF000000092
:1005B0000DCEE7300707707700707770700000008D
:1005C0001CFEE73007077077007FF77070000000AF
:1005D0001CFCE73007FE7077007FF77FF00000001B
:1005E0001C7C677007FE70770070777FE00000006A
:1005F0001C78773FF7077FF3FF70777000000000EB
:100600001C00771FF7073FE3FF70777000000000C2
:1006100000000000000000000000000000000000DA
:1006200000000000000000000000000000000000CA
:100630003E0FF66E060EF7220900F550120000007C
:1006400000000000000000000000000000000000AA
:10065000000000000000000000000000000000009A
:10066000000000000000000000000000000000008A
:10067000000000000000000000000000000000007A
:10068000000000000000000000000000000000006A
:10069000000000000000000000000000000000005A
:1006A000000000000000000000000000000000004A
:1006B000000000000000000000000000000000003A
:1006C000000000000000000000000000000000002A
:1006D000000000000000000000000000000000001A
:1006E000000000000000000000000000000000000A
:1006F00000000000000000000000000000000000FA
:1007000000000000000000000000000000000000E9
:1007100000000000000000000000000000000000D9
:1007200000000000000000000000000000000000C9
:1007300000000000000000000000000000000000B9
:1007400000000000000000000000000000000000A9
:100750000000000000000000000000000000000099
:100760000000000000000000000000000000000089
:100770000000000000000000000000000000000079
:1007800000000000000000000780000000000000E2
:10079000FFE00000000000000380000000000003F4
:1007A000003C000000000000038000000000000684
:1007B000001C000000000000038000000000000C8E
:1007C0000018000000000000038000000000001876
:1007D000000000000000000003800000000000187E
:1007E0000000000000000000038000000000003056
:1007F0000000000000000000038000000000007006
:10080000000001F000F8007DC380EC0000000070E3
:100810000000040C0206008703810700000000604E
:1008200000000806040301030382030000000060C7
:100830000000100708038101838603800000006028
:10084000000010038801C30183860C0000000070C3
:10085000000030039801C70183847000000000701D
:10086000000030039801C701838E800000000070F3
:10087000000030039801C301838F0000000000785E
:1008800000FE38039C01C38103860000000000388D
:10089000000E38039C01C1C3038700000000003C28
:1008A000000E38031C0180E4038700000000001ED6
:1008B000000E1C030E01801C038780000000000F47
:1008C000000E0C060603000C0383C00000000007A6
:1008D000800E070C0386000E07C1FF000000000118
:1008E000E03C01F000F8000F80007E0000000000F6
:1008F0007FC00000000001A3C00000000000000055
:100900000000000000000301C00000000000000023
:100910000000000000000600E000000000000000F1
:100920000000000000000400600000000000000063
:100930000000000000000C0060000000000000004B
:100940000000000000000C0040000000000000005B
:100950000000000000000E00C000000000000000C9
:1009600000000000000007018000000000000000FF
:1009700000000000000001FE000000000000000078
:100980000000000000000000000000000000000067
:100990000000000000000000000000000000000057
:1009A0000000000000000000000000000000000047
:1009B0000000000000000000000000000000000037
:1009C0000000000000000000000000000000000027
:1009D0000000000000000000000000000000000017
:1009E0000000000000000000000000000000000007
:1009F00000000000000000000000000000000000F7
:100A000000000000000000000000000000000000E6
:100A100000000000000000000000000000000000D6
:100A200000000000000000000000000000000000C6
:100A300000000000000000000000000000005661FF
:100A40006C6F723A2569000056616C6F723A2531FD
:100A50002E3466004C5203E094928B8202D0949024
:100A60008B808A92956A4DC08CFF00008A8400D0EA
:100A700000D000008A9494908B9094928B92000CFA
:100A8000296A2950070832E38A984C6A400E4D6E55
:100A9000E1DF010E4C6E400E4D6EDCDF2950B809CF
:100AA0002B6E4C6A4D6ED6DF2950B8092B6E010EA5
:100AB0004C6E2BC04DF0CEDF8A882A6A2A503F0840
:100AC00013E32850FF0DF3CF2BF04C6A2BC04DF0F1
:100AD000C1DF2850FF0DF3CF2BF0010E4C6E2BC061
:100AE0004DF0B8DF2A2AEAD7292ACBD7000C8A860C
:100AF0008A9494908B9094928B928A984C6AC00EB0
:100B00004D6EA8DF010E4C6EC00E4D6EA3DF4C6A19
:100B1000400E4D6E9FDF010E4C6E400E4D6E9ADF03
:100B20004C6AB80E4D6E96DF010E4C6EB80E4D6ECF
:100B300091DF272C0AD04C6A3F0E4D6E8BDF010EE1
:100B40004C6E3F0E4D6E86DF09D04C6A3E0E4D6EE8
:100B500081DF010E4C6E3E0E4D6E7CDF286A90DF09
:100B600018EF0EF02B502D02F3CF01F0F4CF00F070
:100B70002E02F35000262C502D02F3500020026E5E
:100B8000000CFF0E956E8A824B5203E094928B828A
:100B900002D094908B8000008A8400D000D0FF0E99
:100BA000956E83CF4CF08A9494908B9094928B9214
:100BB0004CC001F0000C499045503F0803E2400E44
:100BC000455E49808A98459E458C000E49B0010ECD
:100BD0004C6E45C04DF03EDF000E49B0010E4A6E2E
:100BE0004630006E003200321F0E00160050BF0B60
:100BF000B8094B6E4AC04CF04D6E2CDF8A88000E4F
:100C000049B0010E4B6EBDDF000E49B0010E4B6EB8
:100C1000B8DF01C048F0472C0FD04650070B4A6E92
:100C2000010E006E4A50016E04E0D8900036012E8D
:100C3000FCD7005048120FD04650070B4A6E010EE9
:100C4000006E4A50016E04E0D8900036012EFCD7A9
:100C50000050FF0A48168A98000E49B0010E4C6EEB
:100C600045C04DF0F7DE8A88000E49B0010E4C6E8B
:100C700048C04DF0EFDE000C272C4AD0286A2850DF
:100C80003F0846E3296A29500F0840E3070E2A6E01
:100C90002A50800A7F0838E22C6A28C02BF02E6A7E
:100CA000100E2D6E5FDF02C02CF001C02BF029501A
:100CB0000124016E000E0220036E0150F2CF2BF0D2
:100CC000F29E03C0F7FF11EC01F02BBEF28E2B6EEB
:100CD000070ED8802A542C6E2BC000F02C50016EC9
:100CE00004E0D8900032012EFCD700A00BD0295090
:100CF000080DF3502A242B6E456E28C046F0010ED5
:100D0000476E59DF2A06C4D7292ABDD7282AB7D764
:100D10002750020849E1286A28503F0845E3296A1C
:100D200029500F083FE3070E2A6E2A50800A7F08D9
:100D300037E22C6A28C02BF02E6A100E2D6E12DFBF
:100D400002C02CF001C02BF029500124016E000ECE
:100D50000220036E0150F2CF2BF0F29E03C0F7FF8A
:100D600067DC2BBEF28E2B6E070ED8802A542C6EB9
:100D70002BC000F02C50016E04E0D8900032012E00
:100D8000FCD700A00BD02950080DF3502A242B6E5D
:100D9000456E28C046F0010E476E0DDF2A06C5D706
:100DA000292ABED7282AB8D7000CEA6A280EE96E8D
:100DB000EF500DE0060E016E006A002EFED7012EE8
:100DC000FBD77B0E006E002EFED7EF2EF3D7000C64
:100DD0000C0E276EFA0E286EE8DF272EFBD7286A46
:100DE0004FDE000C010E3C6E3D6E426A3350355CA6
:100DF000436E435043AE03D0000ED8804354036A81
:100E00003A6E03C03BF03450365C436E435043AE01
:100E100003D0000ED8804354036A386E03C039F003
:100E20003350355C02E2FF0E3C6E3450365C02E219
:100E3000FF0E3D6E39503B5C39E303E138503A5CBC
:100E400035E3D890383639363A50385C006E3B502E
:100E5000395800C03EF03F6E3A503E5C406E3B5009
:100E60003F58416E3B5203E142503A5C1EE333C0AF
:100E700045F034C046F037C047F09DDE3FBE01D09C
:100E800008D038503E2639503F223C503324336E30
:100E90000AD040503E2641503F223C503324336E0E
:100EA0003D503424346E422ADDD734D0D8903A36BF
:100EB0003B3638503A5C006E39503B5800C03EF02B
:100EC0003F6E38503E5C406E39503F58416E39524B
:100ED00003E14250385C1EE333C045F034C046F0B5
:100EE00037C047F068DE3FBE01D008D03A503E26FA
:100EF0003B503F223D503424346E0AD040503E26B1
:100F000041503F223C503324336E3D503424346EE4
:100F1000422ADDD7000C2B522CE02950275C05E239
:100F200027C02EF029C02FF004D029C02EF027C0F2
:100F30002FF02A50285C05E228C030F02AC031F09A
:100F400004D02AC030F028C031F02E502F5C10E3BE
:100F500030C02DF02D50315C09E32EC045F02DC07E
:100F600046F02CC047F027DE2D2AF4D72E2AEDD7E5
:100F70002CD027C033F028C034F029C035F028C069
:100F800036F02CC037F02EDF27C033F02AC034F003
:100F900029C035F02AC036F02CC037F023DF27C037
:100FA00033F028C034F027C035F02AC036F02CC00A
:100FB00037F018DF29C033F028C034F029C035F0ED
:100FC0002AC036F02CC037F00DDF000C49504B180A
:100FD000800B4D6E49AE05D0481E491E482AD8B434
:100FE000492A4BAE05D04A1E4B1E4A2AD8B44B2A7A
:100FF00048504A02F3CF01F0F4CF00F04B02F35017
:10100000002649504A02F3500020026E4DAE05D032
:10101000011E021E012AD8B4022A000C010E326EF3
:10102000336E3D6A2750295C446E445044AE03D071
:10103000000ED8804454036AE8BE0306306E03C035
:1010400031F028502A5C446E445044AE03D0000E68
:10105000D8804454036AE8BE03062E6E03C02FF006
:10106000D8902B302D6E31C049F030C048F04B6A1B
:1010700027C04AF0ABDF02C045F001C044F02FC0EA
:1010800049F02EC048F04B6A28C04AF09FDF02C0EA
:1010900003F001504424016E455003220150FF0A21
:1010A000010F396E000E03543A6E31C049F030C062
:1010B00048F04B6A29C04AF089DF02C045F001C000
:1010C00044F02FC049F02EC048F04B6A2AC04AF0C5
:1010D0007DDF02C003F001504424016E455003221D
:1010E0000150FF0A010F3B6E000E03543C6E275067
:1010F000295C0EE23AC03FF039C03EF03CC03AF005
:101100003BC039F03FC03CF03EC03BF0FF0E326EBA
:1011100028502A5C0EE23AC041F039C040F03CC091
:101120003AF03BC039F041C03CF040C03BF0FF0E0C
:10113000336E2FAE03D031AE0CD002D031BE98D07A
:101140002F50315CD8A094D004E12E50305CD8A050
:101150008FD0496A020E486E2FC04BF02EC04AF065
:1011600035DF3050015C356E31500258366E3050EC
:10117000355C376E31503658386E3D6A31BE77D0A7
:10118000315204E13D50305CD8A071D0000ED880BF
:101190002D54346E2B50010B2D2434BE02D0345C00
:1011A00047E231C049F030C048F04B6A27C04AF0EE
:1011B0000DDF02C045F001C044F034502824036A1A
:1011C000006EE8BE0306466E03C047F02FC049F02C
:1011D0002EC048F003C04BF04A6EF8DE02C003F0A8
:1011E00001504424016E4550032201C042F0425098
:1011F0003924446E000E3A20456EE8BE17D000D068
:1012000042503B24446E000E3C20456EE8BE05D0A3
:1012100045520CE14450000809E334502824446E40
:1012200027C045F0466E2CC047F0C5DC342AB2D743
:1012300036BE01D010D0496A020E486E2FC04BF066
:101240002EC04AF0C3DE01503526025036223250FD
:101250002724276E0AD03750352638503622325090
:101260002724276E33502824286E3D2A87D78ED016
:10127000496A020E486E31C04BF030C04AF0A6DE1B
:101280002E50015C356E2F500258366E2E50355C54
:10129000376E2F503658386E3D6A2FBE77D02F529A
:1012A00004E13D502E5CD8A071D036BE01D010D0E4
:1012B000496A020E486E31C04BF030C04AF086DEFB
:1012C000015035260250362233502824286E0AD089
:1012D000375035263850362232502724276E335067
:1012E0002824286E000ED8802D54346E2B50010B0C
:1012F0002D2434BE02D0345C47E231C049F030C006
:1013000048F04B6A27C04AF061DE02C045F001C0D8
:1013100044F034502824036A006EE8BE0306466E8B
:1013200003C047F02FC049F02EC048F003C04BF077
:101330004A6E4CDE02C003F001504424016E455059
:10134000032201C043F043503924446E000E3A207A
:10135000456EE8BE17D000D043503B24446E000ECB
:101360003C20456EE8BE05D045520CE144500008D3
:1013700009E334502724446E456E28C046F02CC043
:1013800047F019DC342AB2D73D2A87D767EF0EF031
:10139000006A016A3050D89031B000260032013224
:1013A00031B200260032013231B40026003201325F
:1013B00031B600260032013231B800260032013247
:1013C00031BA00260032013231BC0026003201322F
:1013D00031BE002600320132000C2C6A29C02DF0EB
:1013E000010ED88029542E6E2A5259E02C50275CC9
:1013F0002F6E2D502824306E2C502724316E2D5006
:101400002824326E2FC033F030C034F031C035F0B4
:10141000366E2BC037F0E6DC2C50275C2F6E2D503B
:10142000285C306E2C502724316E2D50285C326E93
:101430002FC033F030C034F031C035F0366E2BC0E1
:1014400037F0D0DC2D50275C2F6E2C502824306EC6
:101450002D502724316E2C502824326E2FC033F0AB
:1014600030C034F031C035F0366E2BC037F0BADC06
:101470002D50275C2F6E2C50285C306E2D50272469
:10148000316E2C50285C326E2FC033F030C034F0F7
:1014900031C035F0366E2BC037F0A4DC68D0275051
:1014A0002C242F6E28502D24306E2FC045F0466E10
:1014B0002BC047F0DBEC05F027502D242F6E285071
:1014C0002C24306E2FC045F0466E2BC047F0DBEC6D
:1014D00005F02C50275C2F6E28502D24306E2FC025
:1014E00045F0466E2BC047F0DBEC05F02D50275C35
:1014F0002F6E28502C24306E2FC045F0466E2BC026
:1015000047F0DBEC05F027502D242F6E2C50285C83
:10151000306E2FC045F0466E2BC047F0DBEC05F077
:1015200027502C242F6E2D50285C306E2FC045F094
:10153000466E2BC047F0DBEC05F02C50275C2F6E7D
:101540002D50285C306E2FC045F0466E2BC047F002
:10155000DBEC05F02D50275C2F6E2C50285C306E94
:101560002FC045F0466E2BC047F0DBEC05F02EBED9
:1015700001D00CD02C502C2A2F6E020E306E2FC0B2
:1015800031F006DF0150030F2E260FD02C502C2AED
:101590002F6E2D502D062F5C2F6E020E306E2FC039
:1015A00031F0F6DE0150050F2E262C50800A006E19
:1015B0002D50800A005CD8B417D7D8A015D7000CDE
:1015C0002AC003F029C0E9FF2AC0EAFFEF52D8B4CD
:1015D000C2D02AC003F029C0E9FF2AC0EAFFEF50B9
:1015E000520824E32AC003F029C0E9FF2AC0EAFF19
:1015F000200EEF5C050DF350036A366EEA6A310E79
:10160000E96E3A6A36C039F0F2CF37F0F29E050E35
:10161000016EF76A365013EC00F00A000900F5CFAE
:10162000EEFF012EFBD737BEF28E32D02AC003F078
:1016300029C0E9FF2AC0EAFFEF507E0824E32AC050
:1016400003F029C0E9FF2AC0EAFF530EEF5C050D45
:10165000F350036A366EEA6A310EE96E3A6A36C0B2
:1016600039F0F2CF37F0F29E050E016EF76A365070
:101670009BEC00F00A000900F5CFEEFF012EFBD72E
:1016800037BEF28E05D0316A326A336A346A356AFF
:101690002AC003F029C0E9FF2AC0EAFFEF500A0A76
:1016A00003E0070A07E008D02B50070DF350010FA5
:1016B00028264CD0276A4AD02B50050DF3502724FA
:1016C0007F0806E2276A2B50070DF350010F2826EA
:1016D0002D6A2D5004083AE32E6A2E50060832E394
:1016E000036A2D50310FE96E000E0320EA6EEFCF32
:1016F00036F036C000F02E50016E04E0D890003273
:10170000012EFCD700A01CD02F6A2B502F5C18E2B2
:10171000306A2B50305C12E230502724366E2E5047
:101720002B02F35028242F24376E36C045F0466E26
:101730002CC047F0DBEC05F0302AEBD72F2AE5D799
:101740002E2ACBD72D2A2B502726C3D7292AD8B407
:101750002A2A272A35D7000C26C0EAFF25C0E9FF30
:1017600034C0EFFFE92AD8B4EA2AEF6A252AD8B4B0
:10177000262A000C0900F6CF28F0F7CF29F0F5CF84
:1017800034F0EADF28C0F6FF29C0F7FF272EF2D792
:10179000000C2E50016A2D5C03E22DC000F00CD02D
:1017A000006A080E2F6E2D3600362E50005CD8B021
:1017B000006E01362F2EF7D7000C200E28A8300E11
:1017C000296E27C000F027AE07D0001E002A00C0F7
:1017D00027F02D0E296E288E015027C02DF0640EA3
:1017E0002E6ED7DF00C027F0300E01242A6E27C0EE
:1017F0002DF00A0E2E6ECDDF300E00242C6E300E32
:1018000001242B6E29C000F028A602D028AE28940F
:1018100028B80BD028AE22D028B420D000C02AF09F
:1018200028B21CD000C02BF019D0300E2A5C16E173
:1018300000C02AF0200E296E28A604D02894288201
:1018400028AE2892300E2B5C09E100C02BF0200E50
:101850002A6E28A6F7D7289228AE289028A403D06D
:1018600029C034F079DF28A203D02AC034F074DF15
:1018700028A003D02BC034F06FDF2CC034F06CDF15
:10188000B2EF0EF03450D8B471D0006E3850D8B4E6
:101890006DD0002604E3810E002668E204D07F0E9E
:1018A000005E64E363E035C03CF039503C1A358E8D
:1018B000398E37503B02F4CF3EF036503A02F4CF27
:1018C00003F0F3CF3DF03B02F3503E26F4503D22AF
:1018D000000E032237503A02F3503E26F4503D22C8
:1018E000000E026A0322022235503B02F3503D26CD
:1018F000F4500322000E022235503A02F350032620
:10190000F4500222000E016A012237503902F350CE
:101910003D26F4500322000E0222012236503902E5
:10192000F3500326F4500222000E012235503902F2
:10193000F3500226F4500122002A01BE05D03D36A4
:101940000336023601360006000E3DAE0AD0032AE9
:1019500002220122015005E1025003E1035001E19E
:10196000002A3CBE018E3CAE019E04D0006A016A92
:10197000026A036A2DEF0DF03450B608346E036A24
:1019800035C038F0358ED8903532363237320332A2
:10199000023201320032342EF6D738AE0BD0001EA0
:1019A000011E021E031E002AD8B4012AD8B4022A3E
:1019B000D8B4032A40EF0DF0006A016A026A036A94
:1019C0003C6A3D6A3E6A3F6A3B503A103910381013
:1019D0002CE0200E406ED890343635363636373609
:1019E0003C363D363E363F363B503F5C08E13A5090
:1019F0003E5C05E139503D5C02E138503C5C0FE350
:101A000038503C5E3950D8A0393C3D5E3A50D8A0A1
:101A10003A3C3E5E3B50D8A03B3C3F5ED88000360F
:101A2000013602360336402ED6D7EA6A3C0EE96EFE
:101A3000000CE9502C6E2B502E6E19E02AC037F0A6
:101A400029C036F028C035F027C034F03B6A3A6A26
:101A5000200E396E820E386E15D703C02AF002C0F0
:101A600029F001C028F000C027F02E2EE7D72AC0A9
:101A700037F029C036F028C035F027C034F07CD7C5
:101A800003C02AF002C029F001C028F000C027F0EE
:101A90002AAE0DD02C062C8A271E281E291E2A1E8F
:101AA000272AD8B4282AD8B4292AD8B42A2A3B0EFF
:101AB000336E9A0E326ECA0E316E306A0A0E2E6E78
:101AC0002B50D8B42C2A2AC037F029C036F028C0B1
:101AD00035F027C034F033C03BF032C03AF031C0AB
:101AE00039F030C038F068DF0150EFCF27F0ECCF8D
:101AF00028F0ECCF29F0ECCF2AF000520FE12B2890
:101B00002E5C0CE02C500CE00F0B2E5C01E037E259
:101B10002CBE35D02CBC04D0200E2DD0200E2C167F
:101B20002CAA0CD02C9A2B50D8A42C0600502C6E2A
:101B30002D0E346E11DE2C50006E2C6A2B502E5C54
:101B40000AE100502C6E2E0E346E06DE2C50006E14
:101B5000200E2C16000E300E2CAA0DD02C9A2B50D5
:101B6000D8A42C0600502C6E2D0E346EF5DD2C50B2
:101B7000006E2C6A300E002600C034F0EDDD33C05C
:101B800037F032C036F031C035F030C034F03B6A47
:101B90003A6A396A0A0E386E0FDF03C033F002C0AA
:101BA00032F001C031F000C030F02E2E8CD7E1EFC2
:101BB0000EF0F86AD09EEA6AE96AC150C00B0F09BC
:101BC000C16E070EB46E046A056A480E0B6E650E90
:101BD0000C6E6C0E0D6E0E6E6F0E0F6E106A256A17
:101BE000266AC150C00B0F09C16EC2909698C69A62
:101BF000949A94889496010EC66E000EC76E800E5D
:101C0000D56EB50ECD6ECD6A000ECA6E000ECB6ECF
:101C1000B16AD190F29CF29EF2BEFDD7F18E926A2B
:101C2000936A946A956A966A010E276E77EF05F0BB
:101C3000286A40EC05F00400010E276E3CEC06F02B
:101C40000C0E276EFA0E286ED5EC06F0272EFAD76A
:101C5000286A40EC05F0020E276E3CEC06F0E8EC3A
:101C600006F0336A346A7F0E356E3F0E366E010E13
:101C7000376EF2EC06F0E8EC06F00A0E276E286EDE
:101C8000640E296E320E2A6E2B6A010E2C6E8BECBE
:101C900007F0E8EC06F0280E276E140E286E460EAC
:101CA000296E1E0E2A6E010E2B6E2C6E8BEC07F029
:101CB000E8EC06F00A0E276E286E700E296E1E0ED6
:101CC0002A6E020E2B6E010E2C6E0EEF08F0E8EC61
:101CD00006F0400E276E200E286E0A0E296E2A6A24
:101CE000010E2B6EEDEC09F0E8EC06F0400E276ECD
:101CF000200E286E140E296E010E2A6E2B6EEDEC4E
:101D000009F0E8EC06F00A6A0B0E096E0A0E276E5F
:101D1000286E0AC02AF009C029F0010E2B6E2C6E25
:101D20004FDCE8EC06F00A0E276E286E0AC02AF097
:101D300009C029F0030E2B6E010E2C6E41DCE8EC7D
:101D400006F0170E116E266A160E256E3E0EF66E02
:101D50000A0EF76E060E276E0DDD11C027F01F0E5E
:101D6000286E2BD50A6A160E096E0A0E276E286E8B
:101D70000AC02AF009C029F0010E2B6E2C6E20DC5F
:101D8000E8EC06F0290E156E5C0E146E0F0E136E45
:101D90007A0E126E266A160E256E480EF66E0A0E22
:101DA000F76E060E276EE6DC890EE96E15C02AF086
:101DB00014C029F013C028F012C027F0040E2B6EB7
:101DC00038D60A6A160E096E0A0E276E286E0AC0E9
:101DD0002AF009C029F0010E2B6E2C6EE0EC0AF0FF
:081DE000E8EC06F028D703002F
:020000040030CA
:0E00000000C21E1E008781000FC00FE00F40DF
:00000001FF
;PIC18F4520
;CRC=CBF0  CREATED="17-jul-18 21:05"
